:100000000C9467030C948F030C948F030C948F0350
:100010000C948F030C948F030C948F030C948F0318
:100020000C948F030C948F030C948F030C948F0308
:100030000C948F030C948F030C948F030C948F03F8
:100040000C94DF1F0C948F030C94AD1F0C94871F2E
:100050000C948F030C948F030C948F030C948F03D8
:100060000C948F030C948F0300000000003E5B4F44
:100070005B3E3E6B4F6B3E1C3E7C3E1C183C7E3C08
:10008000181C577D571C1C5E7F5E1C00183C180016
:10009000FFE7C3E7FF0018241800FFE7DBE7FF30A6
:1000A000483A060E2629792926407F050507407F14
:1000B00005253F5A3CE73C5A7F3E1C1C08081C1C87
:1000C0003E7F14227F22145F5F005F5F06097F017D
:1000D0007F006689956A606060606094A2FFA29468
:1000E00008047E040810207E201008082A1C080836
:1000F0001C2A08081E101010100C1E0C1E0C303884
:100100003E3830060E3E0E06000000000000005F84
:1001100000000007000700147F147F14242A7F2AA0
:100120001223130864623649562050000807030062
:10013000001C2241000041221C002A1C7F1C2A08AE
:10014000083E080800807030000808080808000011
:1001500060600020100804023E5149453E00427F85
:10016000400072494949462141494D331814127FD4
:100170001027454545393C4A494931412111090774
:100180003649494936464949291E000014000000F5
:1001900040340000000814224114141414140041C7
:1001A00022140802015909063E415D594E7C121184
:1001B000127C7F494949363E414141227F414141BC
:1001C0003E7F494949417F090909013E4141517337
:1001D0007F0808087F00417F41002040413F017FA8
:1001E000081422417F404040407F021C027F7F0470
:1001F00008107F3E4141413E7F090909063E4151B9
:10020000215E7F09192946264949493203017F01A8
:10021000033F4040403F1F2040201F3F4038403FA9
:10022000631408146303047804036159494D4300BF
:100230007F4141410204081020004141417F0402F6
:10024000010204404040404000030708002054548D
:1002500078407F284444383844444428384444286B
:100260007F385454541800087E090218A4A49C78BE
:100270007F0804047800447D40002040403D007F1A
:100280001028440000417F40007C047804787C08FA
:100290000404783844444438FC18242418182424CE
:1002A00018FC7C08040408485454542404043F44B3
:1002B000243C4040207C1C2040201C3C4030403CE2
:1002C00044281028444C9090907C4464544C440042
:1002D00008364100000077000000413608000201A6
:1002E0000204023C2623263C1EA1A161123A404092
:1002F000207A38545455592155557941225454780F
:1003000042215554784020545579400C1E527212A7
:100310003955555559395454545939555454580030
:1003200000457C410002457D420001457C407D1234
:1003300011127DF0282528F07C5455450020545496
:100340007C547C0A097F4932494949323A44444441
:100350003A324A4848303A4141217A3A424020787C
:10036000009DA0A07D3D4242423D3D4040403D3C7D
:1003700024FF2424487E4943662B2FFC2F2BFF09A2
:1003800029F620C0887E0903205454794100004496
:100390007D413048484A32384040227A007A0A0A81
:1003A000727D0D19317D2629292F282629292926F4
:1003B00030484D4020380808080808080808382F39
:1003C00010C8ACBA2F102834FA00007B00000814C3
:1003D0002A142222142A14085500550055AA55AA99
:1003E00055AAFF55FF55FF000000FF00101010FF39
:1003F00000141414FF001010FF00FF1010F010F094
:10040000141414FC001414F700FF0000FF00FF1484
:1004100014F404FC141417101F10101F101F1414D0
:10042000141F00101010F0000000001F101010101A
:100430001F10101010F010000000FF10101010100E
:1004400010101010FF10000000FF140000FF00FF4C
:1004500000001F10170000FC04F4141417101714E8
:1004600014F404F40000FF00F7141414141414140A
:10047000F700F7141414171410101F101F1414147D
:10048000F4141010F010F000001F101F0000001FE7
:1004900014000000FC140000F010F01010FF10FF1A
:1004A000141414FF141010101F00000000F010FFAF
:1004B000FFFFFFFFF0F0F0F0F0FFFFFF0000000093
:1004C00000FFFF0F0F0F0F0F3844443844FC4A4A17
:1004D0004A347E02020606027E027E0263554941CC
:1004E000633844443C04407E201E2006027E020203
:1004F00099A5E7A5991C2A492A1C4C7201724C3017
:100500004A4D4D303048784830BC625A463D3E49ED
:100510004949007E0101017E2A2A2A2A2A44445F91
:10052000444440514A444040444A51400000FF0185
:1005300003E080FF000008086B6B08361236243693
:10054000060F090F060000181800000010100030F8
:1005500040FF0101001F01011E00191D1712003C80
:100560003C3C3C000000000000000000240027008C
:100570002A000000000023002600290000000008D7
:10058000000201000003040700000000000000005A
:10059000010204081020408001020408102001021A
:1005A0000408102000000000250028002B0004048F
:1005B000040404040404020202020202030303030B
:1005C000030304E010021C07123732292D29252BC2
:1005D0003900010310E110031D07062E2C292D2ED2
:1005E0002E373F0000021013800A298064022A047B
:1005F0000000007F2B040000009F0F0180961180F7
:10060000FFB103012C2DB203012C2DB306012C2DBB
:10061000012C2DB40107C003A20284C101C5C2028E
:100620000A00C3028A2AC4028AEEC5010E200036DF
:1006300001C83A0105424D5020666F726D61742009
:100640006E6F74207265636F676E697A65642E00E1
:100650004C6F6164656420696E2000496D61676557
:100660002073697A653A2000426974204465707489
:10067000683A20004865616465722073697A653A5A
:100680002000496D616765204F66667365743A2086
:100690000046696C652073697A653A200046696C8A
:1006A00065206E6F7420666F756E64004C6F6164B8
:1006B000696E6720696D6167652027007C3C3E5E3E
:1006C0002B3D3F2F5B5D3B2C2A225C00292011240F
:1006D0001FBECFEFD8E0DEBFCDBF25E0A0E1B2E086
:1006E00001C01D92A134B207E1F712E0A0E0B1E031
:1006F000E2E7F5E502C005900D92A031B107D9F708
:1007000013E0C7E6D3E004C02197FE010E948228CF
:10071000C636D107C9F70E94A4200C94B72A0C94BE
:1007200000000895AF92BF92CF92DF92EF92FF92B6
:100730000F931F93CF93DF936C017B018B01040F09
:10074000151FEB015E01AE18BF08C017D10759F0A5
:100750006991D601ED91FC910190F081E02DC601E7
:100760000995892B79F7C501DF91CF911F910F91E1
:10077000FF90EF90DF90CF90BF90AF900895FC0175
:10078000538D448D252F30E0842F90E0821B930BF6
:10079000541710F0CF96089501970895FC01918D9C
:1007A000828D981761F0A28DAE0FBF2FB11D5D969F
:1007B0008C91928D9F5F9F73928F90E008958FEF41
:1007C0009FEF0895FC01918D828D981731F0828DF5
:1007D000E80FF11D858D90E008958FEF9FEF08954C
:1007E000FC01918D228D892F90E0805C9F4F821BB0
:1007F00091098F739927089582E294E00E94F00393
:1008000021E0892B09F420E0822F089580E090E018
:10081000892B29F00E94FC0381110C94000008959B
:10082000FC01A48DA80FB92FB11DA35ABF4F2C9165
:10083000848D90E001968F739927848FA689B7895C
:100840002C93A089B1898C91837080648C93938D53
:10085000848D981306C00288F389E02D80818F7DF6
:1008600080830895EF92FF920F931F93CF93DF93AE
:10087000EC0181E0888F9B8D8C8D98131AC0E889DC
:10088000F989808185FF15C09FB7F894EE89FF89AB
:100890006083E889F98980818370806480839FBF49
:1008A00081E090E0DF91CF911F910F91FF90EF9049
:1008B0000895F62E0B8D10E00F5F1F4F0F73112759
:1008C000E02E8C8D8E110CC00FB607FCFACFE88994
:1008D000F989808185FFF5CFCE010E941004F1CF08
:1008E000EB8DEC0FFD2FF11DE35AFF4FF0829FB708
:1008F000F8940B8FEA89FB8980818062CFCF682FC3
:1009000082E294E00C9432040F931F93CF93DF9311
:100910008C01D0E0C0E0F801EC0FFD1F649166236C
:1009200041F082E294E00E943204892B11F021967A
:10093000F2CFCE01DF91CF911F910F910895CF9308
:10094000DF93EC01888D8823B9F0AA89BB89E889F7
:10095000F9898C9185FD03C0808186FD0DC00FB69D
:1009600007FCF7CF8C9185FFF2CF808185FFEDCF1B
:10097000CE010E941004E9CFDF91CF91089583301A
:1009800081F028F4813099F08230A9F00895873001
:10099000A9F08830C9F08430B1F4809180008F7D57
:1009A00003C0809180008F7780938000089584B584
:1009B0008F7784BD089584B58F7DFBCF8091B00083
:1009C0008F778093B00008958091B0008F7DF9CF2C
:1009D000CF93DF93282F30E0F901E458FA4F849148
:1009E000F901E057FA4FD491F901E255FA4FC49159
:1009F000CC23A1F081110E94BF04EC2FF0E0EE0F98
:100A0000FF1FEE58FA4FA591B491EC91ED2381E0D0
:100A100090E009F480E0DF91CF91089580E090E0CC
:100A2000FACF1F93CF93DF93282F30E0F901E458DA
:100A3000FA4F8491F901E057FA4FD491F901E25548
:100A4000FA4FC491CC23A9F0162F81110E94BF0444
:100A5000EC2FF0E0EE0FFF1FEC55FA4FA591B4918B
:100A60008FB7F894EC91111108C0D095DE23DC9378
:100A70008FBFDF91CF911F910895DE2BF8CFCF93D9
:100A8000DF9390E0FC01E057FA4F249182559A4F92
:100A9000FC0184918823D1F090E0880F991FFC011C
:100AA000E859FA4FA591B491FC01EC55FA4FC59164
:100AB000D491623071F49FB7F8943C91822F809565
:100AC00083238C93E8812E2B28839FBFDF91CF91C6
:100AD00008958FB7F894EC912E2B2C938FBFF6CFFF
:100AE0003FB7F89480911B0290911C02A0911D02C7
:100AF000B0911E0226B5A89B05C02F3F19F00196A4
:100B0000A11DB11D3FBFBA2FA92F982F8827BC0167
:100B1000CD01620F711D811D911D42E0660F771F8F
:100B2000881F991F4A95D1F708958F929F92AF928F
:100B3000BF92CF92DF92EF92FF926B017C010E94F5
:100B400070054B015C01C114D104E104F104B9F05A
:100B50000E947005681979098A099B09683E7340EB
:100B60008105910580F321E0C21AD108E108F1085E
:100B700088EE880E83E0981EA11CB11CE4CFFF9084
:100B8000EF90DF90CF90BF90AF909F908F9008959F
:100B90002FB7F89460911702709118028091190292
:100BA00090911A022FBF0895FC01DB0112968D91DE
:100BB0009C9113979383828382E391E09183808356
:100BC00014968C911497848315968C911597858330
:100BD00016964D915D916D917C911997468357833F
:100BE000608771871A964D915D916D917C911D97EB
:100BF00042875387648775871E964D915D916D91ED
:100C00007C91519746875787608B718B52968C9158
:100C10005297828B53964D915D916D917C91569731
:100C2000438B548B658B768B57964D915D916D916F
:100C30007C915A97478B508F618F728F5B968D9105
:100C40009C91948F838F0895DC015996ED91FC91CE
:100C5000309721F081E09581911101C080E00895E5
:100C6000DC015996ED91FC913097B9F08389948914
:100C7000A589B6894285538564857585841B950B46
:100C8000A60BB70B811520E89207A105B10538F036
:100C90008FEF9FE7A0E0B0E0089590E080E0089536
:100CA000CF93DF931F92CDB7DEB76983DC01ED915F
:100CB000FC910280F381E02D41E050E0BE016F5FC6
:100CC0007F4F09950F90DF91CF910895CF93CFB7C4
:100CD000F89480911002811127C0E8EBF5E084912F
:100CE000EAE9F5E09491E82FF0E0EE0FFF1FE859F4
:100CF000FA4FA591B491EC91E92321F461E08AE0E7
:100D00000E94110561E08AE00E943F058CB5806178
:100D10008CBD8CB580648CBD61E08DE00E943F0588
:100D200061E08BE00E943F05809110028F5F80930D
:100D30001002CFBFCF910895DC019B96ED91FC91FD
:100D40009C979081D0968C91892B80830895DC01AB
:100D50009996ED91FC919A9790819F968C918095B0
:100D6000892380830895DC019996ED91FC919A97EF
:100D700090819F968C91892B80830895EF92FF92AA
:100D80000F931F93DC011A960D911C911B971896D7
:100D90002D913C911997ED91FC9100A0F1A1E02DCE
:100DA0007B0150E040E070E060E009951F910F91F9
:100DB000FF90EF9008958EBD00000DB407FEFDCFAB
:100DC0008EB508958FEF0C94DB060F931F93CF938E
:100DD000DF93EC010E94C8058B010E94E2068F3F61
:100DE00069F00E94C805601B710B6C177D07A8F3A2
:100DF00080E0DF91CF911F910F91089581E0F9CFAD
:100E0000FC01862F938D28E030E040E891110C948E
:100E1000DB06A5A1B6A195A5582F5423A9F05C9196
:100E2000952B9C93A7A1B0A59C9156A5952B9C931F
:100E3000A7A1B0A55C9196A5909595239C93469506
:100E40002150310931F708955C9190959523E9CFB0
:100E5000089561E0FC0184810E94110580911102D6
:100E600081111092110208958CBD9DBD0895CF93FC
:100E7000DF93EC0180911102811109C081E0809320
:100E800011028091BF049091C0040E94340760E079
:100E90008C81DF91CF910C9411058F929F92AF922C
:100EA000BF92FF920F931F93CF93DF93EC01F62E27
:100EB00049015A018E81882389F08F8198859C0190
:100EC0002F5F3F4F38872F838230924018F40E9463
:100ED000E206F3CFCE010E9429071E82CE010E94B6
:100EE00037078CE291E00E94E5068F2D80640E9416
:100EF000DB0608E110E0D501C401002E04C0B69560
:100F0000A795979587950A94D2F70E94DB0608501B
:100F10001109083F8FEF180771F785E9FF2021F0CD
:100F200028E087E8F2128FEF0E94DB0610E00E94B3
:100F3000E2068A8787FF04C01F3F11F01F5FF7CFCB
:100F4000DF91CF911F910F91FF90BF90AF909F9035
:100F50008F900895AF92BF92CF92DF92EF92FF925F
:100F60000F931F93CF93DF93EC016901C801820FA8
:100F7000931F8130924050F58E81882379F08881CB
:100F80009981AA81BB8184179507A607B70731F419
:100F90008F819885C816D90608F042C048835983C6
:100FA0006A837B838B85833039F089E0440F551F3A
:100FB000661F771F8A95D1F79A01AB0161E1CE01D7
:100FC0000E944D07882389F083E08D83CE010E9423
:100FD000290780E0DF91CF911F910F91FF90EF9053
:100FE000DF90CF90BF90AF9008950E94C8055B013D
:100FF0000E94E2068A878F3F69F40E94C8056A1939
:101000007B096D327140A0F38FE08D83CE010E9489
:101010002907DCCF8E3F89F418861F8281E08E83FA
:101020008F8198858C159D0550F40E94E2068F8172
:101030009885019698878F83F3CF8DE0E6CF67017F
:10104000E00EF11E0E94E206F60181936F01EE159B
:10105000FF05C1F78F819885080F191F18870F8327
:101060008985882319F001151240A0F08E8188230C
:1010700089F08F8198859C012F5F3F4F38872F83A0
:101080008230924018F40E94E206F3CFCE010E9413
:1010900029071E8281E09ECFEF92FF920F931F934C
:1010A000CF93DF93EC01790182E141155105610590
:1010B000710599F08B85833039F089E0440F551F15
:1010C000661F771F8A95D1F79A01AB0168E1CE01BF
:1010D0000E944D07882319F084E08D8330C08EEF85
:1010E0000E94DB0687018EEFF81AF80181918F01CB
:1010F0000E94DB060E151F05C1F78FEF0E94DB066D
:101100008FEF0E94DB060E94E2068A878F7185308E
:1011100089F488E592E00E94E5068823A9F020E0A2
:1011200030E0A9016DE0CE010E944D07882371F0E7
:1011300084E1D3CF81E18D83CE010E942907CE01C6
:101140000E94290780E00AC085E1C7CF0E94E2061D
:101150008111EECFCE010E94290781E0DF91CF916E
:101160001F910F91FF90EF900895CF93DF9380919F
:1011700021028823A9F1C0911F02D0912002409141
:10118000000150910101609102017091030122E27E
:1011900032E0CE010E944C08811104C080E0DF9152
:1011A000CF91089540911202509113026091140260
:1011B00070911502411551056105710579F022E222
:1011C00032E0CE010E944C08882341F310921202B3
:1011D0001092130210921402109215021092210222
:1011E00081E0DDCF8F929F92AF92BF92EF92FF92FC
:1011F0000F931F93CF934B015C01C42F809100018B
:1012000090910101A0910201B09103018815990507
:10121000AA05BB0549F10E94B50881110BC080E009
:10122000CF911F910F91FF90EF90BF90AF909F9043
:101230008F90089582E2E82E82E0F82E00E012E01E
:1012400030E020E0B501A40180911F0290912002BE
:101250000E94AA07882319F380920001909201014D
:10126000A0920201B0920301409121024C2B4093C5
:10127000210281E0D5CF8F929F92AF92BF92CF9201
:10128000DF92EF92FF92CF9321EC34E03093200273
:1012900020931F02882309F46DC040E060E070E0F5
:1012A000CB010E94F20881110BC080E0CF91FF902A
:1012B000EF90DF90CF90BF90AF909F908F90089568
:1012C0008091E0038F7789F78091EC039091ED0393
:1012D000A091EE03B091EF0384369105A105B1050D
:1012E00020F3C090E803D090E903E090EA03F09087
:1012F000EB03C114D104E104F104B9F240E0C701E9
:10130000B6010E94F208882381F280912D0290910B
:101310002E028115924049F6A0913202AA2329F2A9
:1013200060913002709131026115710509F4BDCFF1
:1013300020912F02222309F4B8CFA093DF04209339
:10134000D10490E080E030E0E1E0F0E0C82FAF01B0
:10135000082E02C0440F551F0A94E2F724173507E0
:1013600069F041E0480F01968930910579F7409383
:10137000DA049BCFC12CD12C7601C0CF8093DA0444
:10138000209138023091390250E040E021153105BA
:1013900041F4209146023091470240914802509119
:1013A00049022093D2043093D3044093D404509341
:1013B000D50446015701860E971EA11CB11C8092D0
:1013C000E0049092E104A092E204B092E304E09180
:1013D0003302F0913402F093E604E093E504B0E0C8
:1013E0000E940028DC01CB01880D991DAA1DBB1DA0
:1013F0008093E7049093E804A093E904B093EA048F
:1014000025E0EE0FFF1F2A95E1F7E150FE4FEF2F89
:10141000FF27E6958E0F9F1FA11DB11D8093DB0452
:101420009093DC04A093DD04B093DE048090350239
:1014300090903602B12CA12C8114910441F480903B
:10144000420290904302A0904402B0904502C81A14
:10145000D90AEA0AFB0AC80CD91CEA1CFB1C04C006
:10146000F694E794D794C794CA95D2F7C092D6045D
:10147000D092D704E092D804F092D90485EFC81630
:101480008FE0D806E104F10428F48CE08093E404B2
:1014900081E00CCF80E125EFC2162FEFD206E104E8
:1014A000F104A0F380914E0290914F02A09150025E
:1014B000B09151028093E7049093E804A093E9046B
:1014C000B093EA0480E2E2CF4F925F926F927F92F4
:1014D0008F929F92AF92BF92CF92DF92EF92FF9244
:1014E0000F931F93CF93DF93EC01423051056105B9
:1014F000710590F480E0DF91CF911F910F91FF90E3
:10150000EF90DF90CF90BF90AF909F908F907F90A3
:101510006F905F904F90089589859A85AB85BC85C3
:101520000196A11DB11D84179507A607B70710F3F3
:10153000CB88DC88ED88FE888F89803109F042C035
:10154000BB27A72F962F852F480159012A013B0160
:10155000C80ED91EEA1EFB1E809100019091010168
:10156000A0910201B0910301C816D906EA06FB0654
:1015700099F58F898031C1F5B301A20155276627FE
:101580007727440F551F4E5D5D4FFA01918280828F
:10159000809121028160809321028A89823080F0CB
:1015A0008D819E81AF81B8858C0D9D1DAE1DBF1DA7
:1015B0008093120290931302A0931402B093150229
:1015C00081E099CFDB01CA01E7E0B695A795979531
:1015D0008795EA95D1F7B8CF40E0C701B6010E94E0
:1015E000F2088111C6CF86CFB301A2014F775527EC
:1015F00066277727440F551F440F551F4E5D5D4FDB
:10160000FA0180829182A282B382C2CF8F929F928E
:10161000AF92BF92CF92DF92EF92FF920F931F9300
:10162000CF93DF93FC0181859285A385B4850196D4
:10163000A11DB11D84179507A607B70770F480E0B8
:10164000DF91CF911F910F91FF90EF90DF90CF909E
:10165000BF90AF909F908F90089583889488A588BD
:10166000B6888789803189F5BB27A72F962F852FCC
:10167000E9016A017B018F01BC01CD01680D791D73
:101680008A1D9B1D8090000190900101A090020195
:10169000B090030186169706A806B90601F5F80171
:1016A0008789803111F5DD24EE24FF24F601EE0F49
:1016B000FF1FEE5DFD4F80819181B0E0A0E0888347
:1016C0009983AA83BB8381E0BBCFDB01CA01C7E05A
:1016D000B695A79597958795CA95D1F7C9CF40E05C
:1016E0000E94F2088111DBCFAACFE894C7F8DD246D
:1016F000EE24FF24F601EE0FFF1FEE0FFF1FEE5D3D
:10170000FD4F80819181A281B381BF70D8CF4F926C
:101710005F926F927F92AF92BF92CF92DF92EF92E1
:10172000FF920F931F93CF93DF9300D000D0CDB7DC
:10173000DEB78C0149835A836B837C835901C12CAA
:10174000D12C7601412C82E0582E612C712C4981DC
:101750005A816B817C819E012F5F3F4FC8010E949F
:10176000060B882339F1F8018585A301920104C095
:10177000220F331F441F551F8A95D2F7DA01C90182
:10178000C80ED91EEA1EFB1E49815A816B817C81DD
:101790008789803111F188EF9FEFAFEFBFE04817E5
:1017A00059076A077B0798F2F501C082D182E2826D
:1017B000F38281E00F900F900F900F90DF91CF9107
:1017C0001F910F91FF90EF90DF90CF90BF90AF905F
:1017D0007F906F905F904F90089588EF9FEFA0E00B
:1017E000B0E0DDCF8F929F92AF92BF92CF92DF9207
:1017F000EF92FF920F931F93CF93DF93EC018D81B4
:1018000081110EC080E0DF91CF911F910F91FF9069
:10181000EF90DF90CF90BF90AF909F908F90089502
:101820000B891C892D893E89041715072607370760
:1018300048F34A015B01823031F48A869B86AC868C
:10184000BD8681E0E0CF81149104A104B10449F484
:101850001E821F82188619861A861B861C861D8684
:10186000F0CF0A851B852C853D85EB8DFC8D85850C
:1018700090E00996B901A801415051096109710927
:10188000082E04C076956795579547950A94D2F728
:1018900075016401E1E0CE1AD108E108F10804C045
:1018A000F694E794D794C7948A95D2F7C416D506D0
:1018B000E606F70620F0012B022B032B11F58F898A
:1018C000988DA98DBA8D8E839F83A887B9878E0145
:1018D0000A5F1F4FC114D104E104F10409F4ADCF34
:1018E0004E815F816885798598018B8D9C8D0E94E2
:1018F000060B91E0C91AD108E108F1088111EACF7D
:1019000081CFC41AD50AE60AF70AE1CF3F924F9277
:101910005F926F927F928F929F92AF92BF92CF927F
:10192000DF92EF92FF920F931F93CF93DF93CDB788
:10193000DEB72C970FB6F894DEBF0FBECDBF5C01AB
:10194000DC015B968D909C905C9716964D905D9017
:101950006D907C901997411451046104710409F44D
:1019600068C0BFEF4B1A5B0A6B0A7B0A312CF4018B
:1019700081859285A385B4859C01AD012F5F3F4F82
:101980004F4F5F4F29873A874B875C87730162010E
:101990001D821E821F821886F40181859285A3858F
:1019A000B4852D813E814F815885281739074A0714
:1019B0005B0708F056C089859A85AB85BC858C1578
:1019C0009D05AE05BF0550F482E0C82ED12CE12C58
:1019D000F12C92E0492E512C612C712C9E012F5F2D
:1019E0003F4FB701A601C4010E94060B8823C9F12D
:1019F00089819A81AB81BC81892B8A2B8B2B09F140
:101A0000260137019FEF491A590A690A790A2D817F
:101A10003E814F8158852F5F3F4F4F4F5F4F2D8342
:101A20003E834F8358873FEFC31AD30AE30AF30A72
:101A3000B3CFF401408051806280738033243394AB
:101A400096CFC414D504E604F70409F70FEF1FEF8F
:101A50002FEF3FE0B701A601C4010E94640A811183
:101A600019C080E02C960FB6F894DEBF0FBECDBF34
:101A7000DF91CF911F910F91FF90EF90DF90CF906A
:101A8000BF90AF909F908F907F906F905F904F909E
:101A90003F900895F5014681578160857185411514
:101AA00051056105710539F097018601C4010E9455
:101AB000640A8823B1F2D5011696CD92DD92ED929B
:101AC000FC921997332051F0D701C6010196A11D50
:101AD000B11DF40180839183A283B383F5018789CB
:101AE000908DA18DB28D892B8A2B8B2B39F4C78ACF
:101AF000D08EE18EF28E84818068848381E0B2CFC3
:101B00002F923F924F925F926F927F928F929F920D
:101B1000AF92BF92CF92DF92EF92FF920F931F93FB
:101B2000CF93DF93EC015B012A018D81811115C0F8
:101B30008FEF9FEFDF91CF911F910F91FF90EF906B
:101B4000DF90CF90BF90AF909F908F907F906F90DD
:101B50005F904F903F902F9008958C8180FFE8CF49
:101B60000B891C892D893E894A855B856C857D851D
:101B7000C201B0E0A0E068017901C41AD50AE60A02
:101B8000F70AC816D906EA06FB0618F42801441A13
:101B9000550A42011E0126E0220E311C81149104D7
:101BA00009F4B3C04A855B856C857D856A0181E057
:101BB000D8228B8D9C8D8A019B01E9E03695279573
:101BC00017950795EA95D1F7ED81E230E1F5FC0133
:101BD000628D738D848D958D600F711F821F931F91
:101BE000612C22E0722E6C187D088614970408F48C
:101BF00034012C8126FD04C06114F2E07F0671F4EB
:101C00000091000110910101209102013091030126
:101C1000061717072807390709F053C040E00E944C
:101C2000F208882309F484CFC6018E5D9D4FD5014B
:101C30009C01260D371DFC012E173F0709F460C0DB
:101C400041914D93F9CFFC0174807A947022C114B4
:101C5000D10471F471100CC0452B462B472B39F57C
:101C60008F89988DA98DBA8D8E839F83A887B98718
:101C7000EB8DFC8D6E817F8188859985625071091D
:101C800081099109258504C0660F771F881F991F58
:101C90002A95D2F70685178520893189600F711F33
:101CA000821F931F670D711D811D911D99CF4E815C
:101CB0005F816885798591010E94060B8111D8CFDB
:101CC00037CF750183019601AB01BC0180911F02E2
:101CD000909120020E94AA07882309F429CFA60C1C
:101CE000B71C8A859B85AC85BD85860D971DA11D7A
:101CF000B11D8A879B87AC87BD87861897084ECF12
:101D0000281B390BA20EB31EECCFC20113CFCF9309
:101D1000DF931F92CDB7DEB741E050E0BE016F5FA9
:101D20007F4F0E94800D019731F4898190E00F90E0
:101D3000DF91CF9108958FEF9FEFF9CFFC01818D57
:101D4000928D009711F00C94870E8FEF9FEF0895FE
:101D50000F931F93CF93DF93EC01898D9A8D10E041
:101D600000E0009799F00E94870E8C010F3F10074A
:101D700069F0898D9A8DFC0142855385648575854E
:101D800041505109610971090E94F20BC801DF91AC
:101D9000CF911F910F910895CF93DF93EC018D8127
:101DA000882389F18C8187FF2AC06E857F85888989
:101DB000998941E00E94F208882329F1EA8980E2AA
:101DC000E89FF0011124EE5DFD4F3097E1F08D8129
:101DD000823040F48B899C89AD89BE89848F958F30
:101DE000A68FB78F8F89988D938F828F8F89988DCB
:101DF000A98DBA8DB58BA48B8C818F778C83DF9165
:101E0000CF910C94B50880E0DF91CF910895CF93E6
:101E1000DF93EC010E94CC0E882311F01D8281E03B
:101E2000DF91CF910895FC01818D928D009711F083
:101E30000C94CC0E08952F923F924F925F926F9226
:101E40007F928F929F92AF92BF92CF92DF92EF924A
:101E5000FF920F931F93CF93DF9300D000D0CDB7A5
:101E6000DEB78C015B011A01DC0115968C91159788
:101E7000813009F0C8C014968C9181FFC4C082FDE6
:101E8000AEC06101D8011A964D915D916D917C9122
:101E90001D97C114D10409F429C15B968D919C91C1
:101EA0005C97FC0174802FEF270D2A013B0139E07C
:101EB00076946794579447943A95D1F7722E74208C
:101EC0007A01F1E0FF22711020C0E114F104E9F47D
:101ED00016964D915D916D917C9119974115510523
:101EE0006105710509F098C057968D919D910D90EF
:101EF000BC91A02D0097A105B10509F0AFC0C801A4
:101F00000E94860C882309F47EC080E092E08E193E
:101F10009F0946018C159D0508F44C01D8015B967C
:101F20004D915C915C9716968D919D910D90BC9111
:101F3000A02D0297A109B109FA01258504C0880FD7
:101F4000991FAA1FBB1F2A95D2F74685578560891E
:101F50007189840F951FA61FB71F9C01AD01270D26
:101F6000311D411D511D29013A01811432E09306B2
:101F700009F07AC08091000190910101A0910201C5
:101F8000B091030184159505A605B70559F48FEFA7
:101F90009FEFDC018093000190930101A093020167
:101FA000B09303019501B301A20180911F029091AA
:101FB00020020E944C08882331F19EEFB91AC818FC
:101FC000D908F80182859385A485B585880D991D6A
:101FD000A11DB11D82879387A487B58753CFF801D0
:101FE000438954896589768982859385A485B585D9
:101FF000481759076A077B0709F443CFC8010E94B5
:10200000F20B81113ECF81E090E0D80113969C93B2
:102010008E93129780E007C09E012F5F3F4F0E9472
:10202000060B811102C090E077C089819A81AB8153
:10203000BC81F801238D348DF901278948EF5FEFCA
:1020400060E070E0203121F048EF5FEF6FEF7FE05C
:1020500084179507A607B70708F051CFF8018683C4
:102060009783A087B18751CFE114F10491F5D8018E
:102070001A964D915D916D917C911D9753968D911E
:102080009D910D90BC91A02D481759076A077B07B9
:1020900000F10E94B508882309F4B5CF40920001F1
:1020A000509201016092020170920301809121021D
:1020B00081608093210297012E5D3D4FD501C901BA
:1020C000880D991DF9018E179F0759F04D91419385
:1020D000FACF41E0C301B2010E94F2088111EBCFB7
:1020E00092CF821B930BA80EB91E69CFF80183898A
:1020F0009489A589B68984179507A607B70738F488
:102100008481438B548B658B768B80688483F80144
:10211000848183FD18C0C1010F900F900F900F9024
:10212000DF91CF911F910F91FF90EF90DF90CF90B3
:10213000BF90AF909F908F907F906F905F904F90E7
:102140003F902F900895C8010E94CC0E882309F477
:102150005ACFE1CFCF93DF931F92CDB7DEB769831C
:1021600041E050E0BE016F5F7F4F0E941B0F0F9058
:10217000DF91CF910895CF93DF93EC01E98DFA8D34
:10218000309749F481E090E09B838A8390E080E07F
:10219000DF91CF91089513821282898D9A8D0E94CA
:1021A0001B0FE98DFA8D22813381232B59F7F0CF54
:1021B0001F93CF93DF93EC01162F8B8D882331F083
:1021C00080910A0590910B050E943407CE010E9470
:1021D0009C06CE010E94A706612FCE010E94000737
:1021E000CE01DF91CF911F910C94B3061F93CF9333
:1021F000DF93EC01162F8B8D882331F080910A0537
:1022000090910B050E943407EBA5FCA5908188A94D
:10221000809589238083CE010E94A706612FCE017D
:102220000E940007CE01DF91CF911F910C94B3065D
:10223000CF92DF92EF92FF920F931F93CF93DF9392
:10224000EC012196FC01F490FA94FFEFFF1609F4DB
:1022500032C0FE0164918CE095E00E94F6106E01A0
:10226000F2E0CF0ED11CFE013196E490CE2DCF7757
:102270008601DC2FD15048F0F80164918CE095E0A4
:102280000E94D8100F5F1F4FF5CFCC0DDD2DD11D53
:10229000E7FEDACF8E010F5F1F4FFE01649170E001
:1022A0006F3F710511F464EF71E090E080E00E94EF
:1022B0009505E801C9CFDF91CF911F910F91FF9054
:1022C000EF90DF90CF900895611103C060E20C940D
:1022D000F61061E2FCCF1F93CF93DF93EC01162F32
:1022E00066E30E94F61013701D8B8A8D1230B1F1D7
:1022F000133009F44AC01130D1F0823019F068EC83
:10230000843009F460ECCE010E94D8108A8D8130AF
:1023100061F580E890E09B878A879987888789A103
:102320008BA38AA18CA3DF91CF911F910895823056
:1023300019F068EA843009F460EACE010E94D810EE
:102340008A8D813049F580E890E0998788879B875E
:102350008A8789A18CA38AA18BA3E5CF823019F04B
:1023600068E0843081F660E0CECF843039F480EAD2
:1023700090E09B878A8780E590E0CFCF80EA90E06D
:102380009B878A8780E890E0C8CF823019F068E6A2
:10239000843099F660E6D1CF843039F480EA90E059
:1023A0009987888780E590E0D2CF80EA90E099878E
:1023B000888780E890E0CBCFEF92FF920F931F9336
:1023C000CF93DF93EC01E62E142FF22E6AE20E94E7
:1023D000F61060E0CE010E94D8106BA16E0DCE0108
:1023E0000E94D81060E0CE010E94D8106BA16F0D42
:1023F000CE010E94D8106BE2CE010E94F61060E080
:10240000CE010E94D8106CA1610FCE010E94D8109D
:1024100060E0CE010E94D8106CA1600FCE010E9436
:10242000D8106CE2CE01DF91CF911F910F91FF90F8
:10243000EF900C94F610AF92BF92CF92DF92EF9292
:10244000FF920F931F93CF93DF93EC015901680123
:1024500028853985621773070CF053C08A859B85E0
:10246000481759070CF04DC0FB01EA0DFB1D2E1754
:102470003F071CF45901A61AB70A9A012C0D3D1DFD
:10248000821793071CF46C01C41AD50A0FEF040FCE
:102490000C0D2FEF260F2A0DCE010E94DC118B8D23
:1024A000882331F080910A0590910B050E94340732
:1024B000CE010E949C06CE010E94A7061C141D049A
:1024C0009CF48501101611065CF46F2DCE010E945C
:1024D00000076E2DCE010E94000701501109F2CFB6
:1024E00081E0C81AD108EACFCE01DF91CF911F91C8
:1024F0000F91FF90EF90DF90CF90BF90AF900C9432
:10250000B306DF91CF911F910F91FF90EF90DF9075
:10251000CF90BF90AF900895DF92EF92FF920F930C
:102520001F93CF93DF93EC017901D02E8885998595
:1025300068177907DCF52A853B8542175307B4F500
:102540009B012E0D3F1D821793071CF47C01E61A98
:10255000F70A2FEF260F2E0D042FCE010E94DC115B
:102560008B8D882331F080910A0590910B050E9494
:102570003407CE010E949C06CE010E94A70681E08E
:10258000E81AF10848F0612FCE010E9400076D2D76
:10259000CE010E940007F3CFCE01DF91CF911F91B2
:1025A0000F91FF90EF90DF900C94B306DF91CF91E5
:1025B0001F910F91FF90EF90DF900895DF92EF92BF
:1025C000FF920F931F93CF93DF93EC017901D02EED
:1025D0008885998568177907DCF58A859B85481772
:1025E0005907B4F59A012E0D3F1D821793071CF46D
:1025F0007C01E41AF50A0FEF040F0E0D262FCE0111
:102600000E94DC118B8D882331F080910A05909116
:102610000B050E943407CE010E949C06CE010E9449
:10262000A70681E0E81AF10848F0612FCE010E9468
:1026300000076D2DCE010E940007F3CFCE01DF9180
:10264000CF911F910F91FF90EF90DF900C94B30604
:10265000DF91CF911F910F91FF90EF90DF90089540
:10266000FF920F931F93CF93DF93EC0177FD34C05C
:1026700088859985681779077CF557FD2DC08A856F
:102680009B854817590744F5F32E122F01E0040FDC
:1026900021E0260FCE010E94DC118B8D882331F0C2
:1026A00080910A0590910B050E943407CE010E948B
:1026B0009C06CE010E94A7066F2DCE010E94000746
:1026C000612FCE010E940007CE01DF91CF911F91B3
:1026D0000F91FF900C94B306DF91CF911F910F9152
:1026E000FF9008950895FC016370658B8481958146
:1026F00026813781613039F0633029F091878087F6
:1027000033872287089531872087938782870895AA
:102710002F923F924F925F926F927F928F929F92F1
:10272000AF92BF92CF92DF92EF92FF920F931F93DF
:10273000CF93DF93CDB7DEB769970FB6F894DEBFBE
:102740000FBECDBF998F888F5B011A01D22E1F83D8
:102750000E833701C982DC0158962D913C9159971F
:102760002115310509F004C118968D919C91199796
:10277000681779070CF0C0C11A968D919C911B9730
:10278000481759070CF0B8C18C2C912CFB0126E09E
:10279000C29EE00DF11D1124F987E8871E161F0661
:1027A0000CF0AAC1A40193E0440F551F9A95E1F7DC
:1027B0005D874C87CA01820D931D181619060CF00F
:1027C0009BC157968C91811104C05FEA5D1508F496
:1027D000D394A88DB98DED91FC9111970284F38566
:1027E000E02DCD010995F5013596F98BE88BBB827B
:1027F000AA82250188E690E08A199B099C0145E0A0
:10280000D49E200D311D11243B8B2A8BEA89FB8934
:10281000E40DF51D24913D822C82D12CC12C622F18
:1028200070E07F876E87E88DF98DA081B18120FFF0
:102830007CC0F981F13009F069C01C96ED91FC91E2
:102840002E813F81A1014C0D5D1DB201888D998DB6
:102850000995EE85FF85F595E7952E2F4FEFC41A64
:10286000D40A6C817D81680D791D7D836C8378E04D
:10287000C716D104A1F68FEF481A580AAA81BB8166
:10288000A80DB91DBB83AA83E889F989E415F5056C
:1028900009F0BCCF2E813F8126153705A9F0A88D00
:1028A000B98DED91FC91B981B13009F051C0B501FC
:1028B0006B5F7F4F0088F189E02D830128E030E0D5
:1028C000A101888D998D0995A88DB98DED91FC9107
:1028D00011970688F789E02DCD0169960FB6F89417
:1028E000DEBF0FBECDBFDF91CF911F910F91FF9043
:1028F000EF90DF90CF90BF90AF909F908F907F90A0
:102900006F905F904F903F902F9009941E96ED919D
:10291000FC91EE80FF80840194014C815D816A818D
:102920007B81888D998D099594CF2E813F812615C5
:10293000370509F48ECF3981313029F41C96ED9199
:10294000FC9193017FCF1E96ED91FC917301E3CF33
:1029500068857985681979090684F785E02D730102
:102960000C851D859401A101888D998D0995ACCFA9
:10297000F90134969491329745915491D91AB7E060
:10298000DB9E400D511D1124F90125913491398BA5
:10299000288BFA0145905490FA0132966490319652
:1029A000C49032961491319604913981323008F4F2
:1029B0008AC0E12E012E000CFF08402F002E000CD3
:1029C000550B59874887A88DB98DED91FC911197CA
:1029D0000284F385E02DCD010995B9818B2E912CD0
:1029E000E89CC001E99C900DF89C900D1124FC011D
:1029F000EA0DFB1DFF87EE871C82D12C712C9B8674
:102A00008A869101200F311D07FD3A953D8B2C8B55
:102A1000A501410F511D17FD5A955F8B4E8B7C14FC
:102A200008F052CF872D90E048855985480F591FEF
:102A30006A857B85469F9001479F300D569F300DDC
:102A40001124D901A20DB31DBD87AC87EE85FF858A
:102A5000FB83EA83B12CA12C2C893D89280F391FD7
:102A60003B8B2A8B8C818A0DA61408F040C087709E
:102A700041F4C2010196E889F989E40DF51DD4906D
:102A80002C01D7FE15C0A88DB98DED91FC91B981AF
:102A9000B130F1F40484F585E02D2E813F814A891F
:102AA0005B896E897F896A0D7B1D888D998D09955B
:102AB000DD0CEFEFAE1ABE0A2A813B81280D391DCD
:102AC0003B832A83CFCF19861886F12CE12C7BCF4C
:102AD0000684F785E02DEE80FF80840194014C850B
:102AE0005D856A817B81888D998D0995E1CF3C81D7
:102AF000360D3C83739493CF69960FB6F894DEBF7E
:102B00000FBECDBFDF91CF911F910F91FF90EF903E
:102B1000DF90CF90BF90AF909F908F907F906F90FD
:102B20005F904F903F902F900895AF92BF92CF92B9
:102B3000EF92FF920F931F93CF93DF93EC01262F19
:102B4000888D998D009709F04FC06A30C9F41D86B1
:102B50001C868C8998E0899F900111248E859F8521
:102B6000820F931F9F878E8781E090E0DF91CF9146
:102B70001F910F91FF90EF90CF90BF90AF9008956D
:102B80006D3091F3CC888E898823C1F08C859D852A
:102B9000E6E0CE9E800D911D112448855985481789
:102BA000590764F44E855F851D861C86F8E0CF9E2C
:102BB000C0011124840F951F9F878E87EA88FB88A8
:102BC000088919894E855F856C857D85CE010E94B7
:102BD00088132C898C859D8536E0239F800D911D5F
:102BE00011249D878C87C0CF6A3069F41D861C86AE
:102BF000FC013696E4912C898E859F85E29F800D9D
:102C0000911D1124AFCF6D3009F4AECFFC01349685
:102C10003491631708F4A8CF3196E491E61708F4CD
:102C2000A3CFFC01329645915491E62FE31BFF0B95
:102C300037E03E9F50013F9FB00C1124A40EB51EFB
:102C4000F501329634913196E4913323A1F1EE23CC
:102C500091F1CC88F5013596E4914E89442301F138
:102C60000E2E000CFF0BE30FF11DCE9EA001CF9E98
:102C7000500D11246C857D85460F571F6885798519
:102C8000641775076CF44E855F851D861C86069655
:102C9000FC018491C89E400D511D11245F874E8711
:102CA000EA88FB88088919894E855F856C857D8552
:102CB000CE010E948813F5013496E4912C898C850D
:102CC0009D85E29F800D911D11248BCF6F927F9285
:102CD0008F929F92AF92BF92CF92DF92EF92FF922C
:102CE0000F931F93CF93DF93EC016B015A013901CE
:102CF0004801E881F9810284F385E02D0995E88196
:102D0000F9810288F389E02D87019301A501B601BD
:102D1000CE010995A501480D591D41505109E88181
:102D2000F9810288F389E02D9301B601CE0109955E
:102D3000E881F9810088F189E02D9401A501B601AF
:102D4000CE010995C60CD71CB60161507109E88106
:102D5000F9810088F189E02D9401A501CE01099542
:102D6000E881F9810688F789E02DCE01DF91CF91C6
:102D70001F910F91FF90EF90DF90CF90BF90AF9099
:102D80009F908F907F906F9009946F927F928F9217
:102D90009F92AF92BF92CF92DF92EF92FF920F93EA
:102DA0001F93CF93DF935C01EB016A014901380166
:102DB0008701DC01ED91FC916217730719F5641628
:102DC00075062CF0962D872D3A01C92ED82E960126
:102DD000261937092F5F3F4F048CF58DE02DA30195
:102DE000BE01C5010995DF91CF911F910F91FF9011
:102DF000EF90DF90CF90BF90AF909F908F907F909B
:102E00006F9008954615570591F42617370724F05B
:102E1000892D4B01C22FD82F9E01281939092F5F08
:102E20003F4F068CF78DE02DA601B401DACF028466
:102E3000F385E02D0995D501ED91FC910488F58984
:102E4000E02D83019401A601BE01C5010995D501BC
:102E5000ED91FC910688F789E02DC501DF91CF91B6
:102E60001F910F91FF90EF90DF90CF90BF90AF90A8
:102E70009F908F907F906F900994EF92FF920F93A5
:102E80001F93DC011A960D911C911B9718962D919A
:102E90003C911997ED91FC9100A0F1A1E02D7B01EF
:102EA00050E040E070E060E009951F910F91FF90C5
:102EB000EF9008954F925F926F927F928F929F92C0
:102EC000AF92BF92CF92DF92EF92FF920F931F9338
:102ED000CF93DF936C012B015A0139014801DC01CA
:102EE000ED91FC910284F385E02D0995E201640CDB
:102EF000751CD601ED91FC91C615D7055CF40088D0
:102F0000F189E02D87019401A501BE01C601099553
:102F10002196EFCF0688F789E02DC601DF91CF918A
:102F20001F910F91FF90EF90DF90CF90BF90AF90E7
:102F30009F908F907F906F905F904F9009948F92A9
:102F40009F92AF92BF92CF92DF92EF92FF920F9338
:102F50001F93CF93DF93EC015B014A016901E88184
:102F6000F9810284F385E02D099595012C0D3D1D15
:102F700021503109E881F9810488F589E02D780133
:102F80008401A401B501CE010995E881F981068883
:102F9000F789E02DCE01DF91CF911F910F91FF9026
:102FA000EF90DF90CF90BF90AF909F908F9009945B
:102FB0008F929F92AF92BF92CF92DF92EF92FF9249
:102FC0000F931F93CF93DF93EC015B014A016901DB
:102FD0007801E881F9810284F385E02D0995C80C18
:102FE000D91C860101501109E881F9810488F5890D
:102FF000E02D9501A401B501CE010995E881F98183
:103000000688F789E02DCE01DF91CF911F910F91B6
:10301000FF90EF90DF90CF90BF90AF909F908F90F8
:103020000994EF92FF920F931F93DC01ED91FC91B5
:1030300000A0F1A1E02D09951F910F91FF90EF9055
:1030400008950F931F93DC01ED91FC91068CF78D91
:10305000E02D09951F910F9108950F931F93DC01A7
:10306000ED91FC91048CF58DE02D09951F910F9148
:103070000895DC01ED91FC910084F185E02D099427
:103080002F923F924F925F926F927F928F929F9278
:10309000AF92BF92CF92DF92EF92FF920F931F9366
:1030A000CF93DF9300D000D000D0CDB7DEB73C0186
:1030B0006A013E832D83FC82EB825801A41AB50A73
:1030C000B7FE03C0B194A194B1088D809E80861A8A
:1030D000970A97FE03C09194819491088A149B04E7
:1030E0005CF0902F812F0D811E819D838E839C2DFE
:1030F0008D2D6B01692F782F0C151D055CF09D81BE
:103100008E817E836D83692F782F902F812F86018A
:10311000C92ED82E1601201A310A2B012D813E818D
:10312000421A530A57FE03C0519441945108710149
:1031300037FE03C03FEFE31AF30AF594E7948D815D
:103140009E81861797075CF5A1E0B0E0BA83A9835A
:10315000C016D1064CF1D301ED91FC910484F585A4
:10316000E02D2B813C81A8016D817E818A149B0416
:103170001CF04D815E81B801C3010995E418F50882
:10318000F7FE0AC02D813E8189819A81280F391F5F
:103190003E832D83E20CF31C0F5F1F4FD9CF2FEF1F
:1031A0003FEF3A832983D4CF26960FB6F894DEBF3B
:1031B0000FBECDBFDF91CF911F910F91FF90EF9088
:1031C000DF90CF90BF90AF909F908F907F906F9047
:1031D0005F904F903F902F900895CF93DF93FB0126
:1031E00022813381DC0113963C932E931297448104
:1031F00055816681778114964D935D936D937C9391
:103200001797408551856285738518964D935D9318
:103210006D937C931B971C96EF012C969C01275E67
:103220003F4F49914D93A217B307D9F7218D328DA6
:10323000FC01328F218FDF91CF9108950F931F935F
:10324000CF93DF9300D000D0CDB7DEB78C010E94C2
:103250009E0E8983C8010E949E0E8A83C8010E9427
:103260009E0E8B83C8010E949E0E8C8369817A8199
:103270008B819C810F900F900F900F90DF91CF91D9
:103280001F910F9108950F931F93CF93DF9300D059
:10329000CDB7DEB78C010E949E0E8983C8010E94C3
:1032A0009E0E8A8389819A810F900F90DF91CF9132
:1032B0001F910F910895CF93DF93EC01FB01828161
:1032C00093819B838A8384819581A681B7818C8336
:1032D0009D83AE83BF8380859185A285B3858887D2
:1032E0009987AA87BB878EE091E0998388838DE0D8
:1032F0003C96DE011C9601900D928A95E1F7FB0148
:10330000818D928D9A8F898FDF91CF910895089545
:1033100090E080E00895FC0101900020E9F73197EA
:10332000AF01481B590BBC0182E294E00C9492035C
:1033300086E691E00C948B19CF93DF93FC014481D6
:1033400055816081718182E294E00E949203EC01D8
:103350000E9498198C0F9D1FDF91CF9108958F9235
:103360009F92AF92BF920F931F93CF93DF93CDB7EE
:10337000DEB7A1970FB6F894DEBF0FBECDBF19A27E
:10338000423008F44AE08E010F5D1F4F842E912CCD
:10339000B12CA12CA50194010E945128E62FB9015E
:1033A000CA01EA30F4F4E05DD801EE938D01232BDD
:1033B000242B252B79F790E080E0109719F0CD01B0
:1033C0000E948B19A1960FB6F894DEBF0FBECDBF39
:1033D000DF91CF911F910F91BF90AF909F908F90F1
:1033E0000895E95CE1CFCF93DF930E948B19EC0144
:1033F0000E9498198C0F9D1FDF91CF910895CF9354
:10340000DF934AE00E94AF19EC010E9498198C0FDB
:103410009D1FDF91CF9108950F931F93CF93DF935B
:10342000EC0180E2689FF0011124EE5DFD4F6A8B94
:103430008091000190910101A0910201B0910301DE
:103440008E879F87A88BB98B0489158930E020E08F
:103450009801112700270F8B188F298F3A8F828DA3
:10346000938DB0E0A0E0AC01BD01402B512B622B4D
:10347000732B4F8B588F698F7A8F83858871A9F44E
:10348000848D958DA68DB78D8B8B9C8BAD8BBE8BD4
:1034900081E08D8381E08C831E821F8218861986CD
:1034A0001A861B861C861D8603C0803131F080E0A1
:1034B000DF91CF911F910F9108959E012D5E3F4F97
:1034C0008B8D9C8D0E94870B882389F384E0E1CF4C
:1034D000AF92BF92CF92DF92EF92FF920F931F9322
:1034E000CF93DF93CDB7DEB72B970FB6F894DEBF3F
:1034F0000FBECDBF6C01FE013196CE010C967F014F
:1035000020E22193E817F907E1F7DA0120E037E03C
:103510009D91B92E9923A9F19E32B9F43A3091F4D4
:1035200080E02B960FB6F894DEBF0FBECDBFDF91C3
:10353000CF911F910F91FF90EF90DF90CF90BF90B0
:10354000AF90089528E03AE0E3CFECEBF6E0849109
:10355000882321F031969813FACFE2CF321700F387
:103560008FED890F8E35E0F68FE9890F8A3118F4D7
:1035700040EEB42EB90EF701E20FF11DB0822F5FBD
:10358000C7CF8981803261F28B01FB01838D948DDD
:10359000F601948F838FFB011682178210861186A5
:1035A0001286138614861586F80182859385A48574
:1035B000B585438954896589768984179507A60757
:1035C000B70708F0ADCF25E0B695A79597958795F5
:1035D0002A95D1F7F82FFF70AF2EF8018581823040
:1035E00008F49ECFC8010E94870E97FD99CFF8017D
:1035F00082859385A485B5854F96A11DB11D8287CF
:103600009387A487B587F0E2AF9EB00111246E5D69
:103610007D4F6115710509F483CFFB0180818823FB
:1036200009F1853E19F4B11032C01EC04BE050E0E4
:10363000C7010E94772A892B09F0B6CF6A2DC601EF
:103640002B960FB6F894DEBF0FBECDBFDF91CF91A2
:103650001F910F91FF90EF90DF90CF90BF90AF90B0
:103660000C940C1AB1105CCFF601A28A8091000173
:1036700090910101A0910201B09103018687978783
:10368000A08BB18BFB018081882309F449CFBB2437
:10369000B3948ACF0E946A2A0F931F93CF93DF932C
:1036A000EC0188819981009759F02A813B81261786
:1036B000370730F081E0DF91CF911F910F9108958E
:1036C0008B016F5F7F4F0E94AD29009759F099835E
:1036D00088831B830A832C813D81232B59F7FC01AE
:1036E0001082E8CF80E0E7CFCF93DF93EC018881B1
:1036F0009981009711F00E942429198218821D8255
:103700001C821B821A82DF91CF910895EF92FF9263
:103710000F931F93CF93DF93EC01FB01E080F180C7
:10372000E114F10411F10481158101151105A9F0CD
:103730008C819D81080F191FB801CE010E944C1B7E
:10374000882399F0288139818C819D81B701820F6E
:10375000931F0E94A12A1D830C83CE01DF91CF917C
:103760001F910F91FF90EF900895CE010E94741B5E
:10377000F4CFEF92FF920F931F93CF93DF93EC015F
:103780007B018A01BA010E944C1B81110BC0CE0142
:103790000E94741BCE01DF91CF911F910F91FF907A
:1037A000EF9008951D830C83B701888199810E9451
:1037B000A12AF0CFFC01118210821382128215829D
:1037C00014826115710551F0FB0101900020E9F7A9
:1037D0003197AF01461B570B0C94B91B0895FC01A0
:1037E00080819181009711F00C9424290895CF9342
:1037F000DF93EC01898D9A8D009741F00E94070FAD
:10380000898D9A8D0E9424291A8E198EDF91CF916D
:103810000895EF92FF920F931F93CF93DF93EC01E4
:103820007B018A011B821A8288EE93E0A0E0B0E05F
:103830008C839D83AE83BF838EE091E099838883E0
:103840008DE190E00E9488289A8F898F009779F007
:103850002DE1F701DC0101900D922A95E1F74CE092
:1038600050E0B801CE010C960E94A82A188EDF9174
:10387000CF911F910F91FF90EF900895CF92DF921B
:10388000EF92FF920F931F93CF93DF93CDB7DEB7E5
:10389000C756D1090FB6F894DEBF0FBECDBF8C015D
:1038A0007B01DB015996CD90DC90F6018581823059
:1038B00008F499C082859385A485B5858F71992771
:1038C000AA27BB27892B8A2B8B2B09F08CC040E2BF
:1038D00050E0BE016F5F7F4FC6010E94800D8032B5
:1038E00009F081C08981882309F47DC0853E79F380
:1038F0008E3269F38C8583FDEACF22961FAE1EAE11
:10390000229782E391E09FAF8EAF24961FAE24975B
:10391000BE016F5F7F4FE0E080E02EE2DB019D9112
:10392000BD019032A1F0883049F44BE550E04C0FD6
:103930005D1F4E0F511DDA012C93EF5F4BE550E0F8
:103940004C0F5D1F4E0F511DDA019C93EF5F8F5F8F
:103950008B3021F78BE590E08C0F9D1F8E0F911D12
:10396000FC011082D70159966D917C91AE01455AA8
:103970005F4FCE01CE960E94681A882309F1BE01DE
:10398000625C7F4FCE0181960E94D405AE01455AFC
:103990005F4FBE016F5D7F4FC8010E94091CC801C7
:1039A000C959DF4F0FB6F894DEBF0FBECDBFDF9110
:1039B000CF911F910F91FF90EF90DF90CF900895DE
:1039C000F8011382128288EE93E0A0E0B0E08483D5
:1039D0009583A683B7838EE091E091838083128ED6
:1039E000118E1486DCCFD80113961C921E9212976A
:1039F00088EE93E0A0E0B0E0F801E9CFAF92BF928B
:103A0000CF92DF92EF92FF921F93CF93DF93CDB7C8
:103A1000DEB7E6970FB6F894DEBF0FBECDBF6C01E0
:103A20007B015B018FEFA81AB80AB601CE0101969F
:103A30000E943E1CCE0101960E9424068823D9F1E3
:103A400010E01E151F042CF489E00E947F041F5F04
:103A5000F8CFCE010D960E948B19EA8DFB8D309721
:103A6000C1F085818230A8F089E691E00E94F319C7
:103A7000BE016F5F7F4FCE014C960E945B19B5016E
:103A8000CE014C960E94FE1CCE0101960E94F71BAF
:103A9000CCCF8BE691E00E948B19EA8DFB8D60E024
:103AA00070E0CB01309721F063897489858996890C
:103AB0000E94FF19E9CFE6960FB6F894DEBF0FBE5D
:103AC000CDBFDF91CF911F91FF90EF90DF90CF900E
:103AD000BF90AF9008952F923F924F925F926F9256
:103AE0007F928F929F92AF92BF92CF92DF92EF928E
:103AF000FF920F931F93CF93DF93CDB7DEB7C656D8
:103B0000D1090FB6F894DEBF0FBECDBF6C015B01CB
:103B10004E018EE1880E911C6BEE74E0C4010E9490
:103B2000D4051C821B8282E391E09A8389831E82E2
:103B300075018E010F5F1F4F240118016FE270E0C5
:103B4000C7010E948D2A009709F45CC0F70120810B
:103B50002F3271F4FFEFEF1AFF0A902F812F8201AD
:103B6000492E582E942D852D2801092F182FE6CF88
:103B70008E198D3008F08CE0682E712CA301B701EE
:103B8000CE01885A9F4F0E94A82AE8E5F0E0EC0F8A
:103B9000FD1FE60DF71D1082C8010E94070FF801F6
:103BA0008581882301F11EAE1DAE82E391E09CAFBA
:103BB0008BAF21961FAE2197A796EEADFFADA797CD
:103BC000AE0EBF1EF5018081811129C0BE01655C6A
:103BD0007F4FC1010E94D40549E651E0B101C60101
:103BE0000E94091C3AC0AE01485A5F4FB201C80199
:103BF0000E94681A8823B9F2E60CF71CC2010E94E1
:103C0000070FB0CFC7018A199B09A7969FAF8EAF48
:103C1000A797B201CE01CB960E94D405CDCF19A2B1
:103C200018A282E391E09F8F8E8F1BA221968FAD09
:103C3000219781112DC0F6011382128288EE93E044
:103C4000A0E0B0E084839583A683B7838EE091E003
:103C500091838083128E118E1486C601CA59DF4F5C
:103C60000FB6F894DEBF0FBECDBFDF91CF911F918D
:103C70000F91FF90EF90DF90CF90BF90AF909F900B
:103C80008F907F906F905F904F903F902F9008950E
:103C90008250A501823068F46BEE74E0C4010E948A
:103CA000681A882341F2B401C1010E94D405A5011C
:103CB00095CFBE01655C7F4FC4010E94681A8823BE
:103CC00009F4B9CFCE01CB960E94070FECCFBF927B
:103CD000CF92DF92EF92FF920F931F93CF93DF93D8
:103CE000CDB7DEB7C257D1090FB6F894DEBF0FBE0D
:103CF000CDBF8C017B011F8E1E8E88EE93E0A0E06D
:103D0000B0E088A399A3AAA3BBA38EE091E09D8F06
:103D10008C8F1EAA1DAA18A669E671E0CE01C7966F
:103D20000E946B1D6296EEADFFAD6297309759F021
:103D30008581823040F016821782108611861286A5
:103D4000138614861586BE01695C7F4FCE018E5A9C
:103D50009F4F0E945B198CE0E80EF11CB701CE0169
:103D600083599F4F0E94DA1B6EE671E0CE010196E7
:103D70000E94DA1BBE0163597F4FCE0101960E945B
:103D8000861B0E949C19CE0101960E94EF1BCE015A
:103D900083599F4F0E94EF1B82E5C82ED12CCC0E79
:103DA000DD1EECE0CE0ED11CBE01695C7F4FCE0162
:103DB00001960E943E1CBE016F5F7F4FCE018E5A5E
:103DC0009F4F0E94ED18CE018E5A9F4F0E942406ED
:103DD000B82E811128C08FE791E00E94F319F801F5
:103DE0001382128288EE93E0A0E0B0E08483958392
:103DF000A683B7838EE091E091838083128E118E2B
:103E00001486C801CE58DF4F0FB6F894DEBF0FBE40
:103E1000CDBFDF91CF911F910F91FF90EF90DF9079
:103E2000CF90BF900895B701CE0183599F4F0E9454
:103E3000DA1BB601CE0101960E94DA1B2D813E816C
:103E4000E3968EAD9FADE3972817390701F5898179
:103E50009A81AF966EAD7FADAF97009749F061152F
:103E6000710561F5232BA1F0FC01808190E00BC06E
:103E70006115710569F0232B59F0FB01808190E0F9
:103E8000919581959109BB24B394892B09F0B12CAC
:103E9000CE0101960E94EF1BCE0183599F4F0E94D5
:103EA000EF1BBB2071F084E991E00E94F319BE0181
:103EB000645E7F4FC8010E945B19A3CF0E94982ABD
:103EC000E2CFBE016E5A7F4FCE014C960E94ED1894
:103ED000B601CE0183599F4F0E94DA1B67EA71E059
:103EE000CE0101960E94DA1BBE0163597F4FCE01BD
:103EF00001960E94861B0E949C19CE0101960E9489
:103F0000EF1BCE0183599F4F0E94EF1B4DCF1F9295
:103F10000F920FB60F9211242F933F934F935F93FD
:103F20006F937F938F939F93AF93BF93EF93FF9381
:103F300082E294E00E941004FF91EF91BF91AF9153
:103F40009F918F917F916F915F914F913F912F91B1
:103F50000F900FBE0F901F9018951F920F920FB6E3
:103F60000F9211242F938F939F93EF93FF93E091E0
:103F70003204F09133048081E0913804F0913904E7
:103F800082FD1BC0908180913B048F5F8F732091D5
:103F90003C04821741F0E0913B04F0E0EE5DFB4F02
:103FA000958F80933B04FF91EF919F918F912F917B
:103FB0000F900FBE0F901F9018958081F4CF1F9225
:103FC0000F920FB60F9211242F933F938F939F93CD
:103FD000AF93BF938091170290911802A09119029C
:103FE000B0911A023091160223E0230F2D3758F5B5
:103FF0000196A11DB11D2093160280931702909384
:104000001802A0931902B0931A0280911B0290919A
:104010001C02A0911D02B0911E020196A11DB11DAE
:1040200080931B0290931C02A0931D02B0931E026A
:10403000BF91AF919F918F913F912F910F900FBEA4
:104040000F901F90189526E8230F0296A11DB11D11
:10405000D2CFE2E2F4E01382128288EE93E0A0E095
:10406000B0E084839583A683B78380E291E0918357
:10407000808385EC90E09587848784EC90E0978737
:10408000868780EC90E0918B808B81EC90E0938B25
:10409000828B82EC90E0958B848B86EC90E0978B02
:1040A000868B118E128E138E148EEFEBF4E080E56A
:1040B00080831182E1ECF4E015821682118613866A
:1040C00042E050E060E070E044875587668777877C
:1040D00013A215A614A622E331E033A722A717A640
:1040E000EAE0F5E080831182ECE0F5E013821282D1
:1040F00020E830E03583248380EA90E0978386834C
:104100003187208793878287158A158614861786BC
:10411000168681E0848B2FEF3FEF338B228B318B20
:10412000208B868B178A118E108E2EE331E031831F
:10413000208396E0948F97E0958F95E0968F838FFC
:104140008FEF80A3878F0895CF93DF93CDB7DEB72E
:10415000CB5BD1090FB6F894DEBF0FBECDBF78940C
:1041600084B5826084BD84B5816084BD85B582607C
:1041700085BD85B5816085BD80916E00816080932D
:104180006E00109281008091810082608093810096
:1041900080918100816080938100809180008160A6
:1041A000809380008091B10084608093B100809101
:1041B000B00081608093B00080917A008460809329
:1041C0007A0080917A00826080937A0080917A00F0
:1041D000816080937A0080917A00806880937A0071
:1041E0001092C100E0913204F091330482E08083A8
:1041F000E0912E04F0912F041082E0913004F091B0
:1042000031048FEC808310923A04E0913604F091EF
:10421000370486E08083E0913404F0913504808196
:1042200080618083E0913404F0913504808188605E
:104230008083E0913404F09135048081806880832C
:10424000E0913404F091350480818F7D808361E0BA
:1042500086E00E943F0561E086E00E94110562E071
:1042600082E00E943F0562E083E00E943F051092D9
:104270002E0510922D0510922F051092300561E049
:10428000809129050E943F0561E0809128050E94E8
:104290003F0580912805082E000C990BFC01E25582
:1042A000FA4FE491F0E0EE0FFF1FEC55FA4F259125
:1042B0003491309336052093350520912905022E3F
:1042C000000C330BF901E255FA4FE491F0E0EE0FE8
:1042D000FF1FEC55FA4F4591549150933805409388
:1042E0003705FC01E057FA4FE491E0933B05F901F3
:1042F000E057FA4FE491E0933C058091270588232D
:1043000009F4AFC00E94660680E580930A0581E04B
:1043100080930B058CE095E00E94A70680912A050A
:104320008F3F21F161E00E943F0561E080912A0505
:104330000E94110564EF71E080E090E00E94950515
:1043400060E080912A050E94110564EF71E080E031
:1043500090E00E94950561E080912A050E94110578
:1043600064EF71E080E090E00E9495058AEF95E0AF
:104370000E9418118DEE95E00E94181182EC95E0D4
:104380000E94181166E38CE095E00E94F61060EC44
:104390008CE095E00E94D81082E08093260560E0D2
:1043A0008CE095E00E946B116FE170E08CE095E08D
:1043B0000E94BE068AEB91E00E948B191092CC04F9
:1043C0001092CA041092C7041092C6048AE0809327
:1043D000C5040E94C8058B0161E08091C5040E945C
:1043E0003F0561E08091C5040E9411050E946606A8
:1043F00082E58093BF041092C0048091BF04909125
:10440000C0040E943407EAE0FE2E8FEF0E94DB0614
:10441000FA94F110FACF81EC94E00E94370720E083
:1044200030E0A90160E081EC94E00E944D07F82E95
:104430008093CB0421E0821709F45CC00E94C80578
:10444000601B710B613D774050F381E08093C6049F
:1044500081EC94E00E94290786ED91E00E94F31917
:10446000FFCF61E080912C050E943F0561E08091C3
:104470002B050E943F0560E080912C050E941105EC
:1044800060E080912B050E94110580912C05082E7B
:10449000000C990BFC01E255FA4FE491F0E0EE0FAD
:1044A000FF1FEC55FA4F259134913093340520933A
:1044B000330520912B05022E000C330BF901E25538
:1044C000FA4FE491F0E0EE0FFF1FEC55FA4F4591E3
:1044D00054915093320540933105FC01E057FA4F57
:1044E000E491E0933A05F901E057FA4FE491E09343
:1044F000390510CF2AEA31E040E050E068E081EC75
:1045000094E00E944D0782FF2AC0F092CC04809173
:10451000CC04C12CD12C7601823029F4C12CD12CB1
:10452000E12C60E4F62E20E030E0A90167E381ECA5
:1045300094E00E944D07A701960169E281EC94E0A6
:104540000E944D078093CB048823D1F00E94C805B8
:10455000601B710B613D774030F388E077CF74E0EA
:10456000F72E0E94E2068093CB04FA94F110F9CF63
:104570008A3A11F082E06ACF82E08093CC04C7CF00
:104580008091CC048230D1F420E030E0A9016AE3CC
:1045900081EC94E00E944D07882311F086E056CF0D
:1045A0000E94E206807C803C19F483E08093CC0476
:1045B0000E94E2060E94E2060E94E20681EC94E07C
:1045C0000E94290780E58093BF041092C00481E017
:1045D0000E943B09882309F43BC18091F0048111BA
:1045E0003BCF8091E404803109F039C182E08093AF
:1045F000F004109202051092030510920405109227
:1046000005058091E5049091E604B0E0A0E055E056
:10461000880F991FAA1FBB1F5A95D1F78093FE04DC
:104620009093FF04A0930005B09301058DEC94E0F6
:10463000909307058093060581E08093EF04109224
:10464000F1041092F2041092F3041092F404109208
:10465000F5041092F6041092F7041092F8041092E8
:10466000F9041092FA041092FB041092FC041092C8
:10467000FD0482ED91E00E94F31969E671E0CE013C
:10468000CD960E946B1DBE01635C7F4FCE010196EB
:104690000E945B1970E060E0CE0101960E94FE1C52
:1046A000CE01CD960E94F71B88E590E08C0F9D1FF0
:1046B0000C96C755DF4F99838883C95AD0401E0195
:1046C0009EE8290E311C69E671E0CE018D589F4F9E
:1046D0000E946B1DBE016D587F4FCE01885A9F4FBF
:1046E0000E943E1C82E00E94E804892B81F5BE01F5
:1046F0006D587F4FCE0101960E943E1CBE016F5F38
:104700007F4FCE01885A9F4F0E94ED18C755DF4F4B
:1047100068817981C95AD040CE0101960E94DA1B86
:104720006EED71E0CE01CD960E94DA1BBE016F5F87
:104730007F4FCE01CD960E94861B0E949C19CE0110
:10474000CD960E94EF1BCE0101960E94EF1B83E0E5
:104750000E94E804892B09F062C0BE01685A7F4FAD
:10476000CE01CD960E945B19BE01635C7F4FCE01E6
:1047700001960E94671EBE016F5F7F4FCE01885A6F
:104780009F4F0E94ED18BE01685A7F4FCE01CD9613
:104790000E945B19BE01635C7F4FCE0101960E94AF
:1047A000671ECE0101960E942406C056DF4F198273
:1047B0001882C05AD040CE55DF4F19821882C25A93
:1047C000D040CC55DF4F19821882C45AD0404AE0FD
:1047D000B10190E00E94CB27F10101900020E9F7A0
:1047E0003197AF0142195309B101CE0180569F4F55
:1047F0000E94B91B60EF71E0C1010E94DA1BBE018B
:1048000060567F4FC1010E94861B0E949C19C10106
:104810000E94EF1BCE0180569F4F0E94EF1BCE01DE
:10482000885A9F4F0E942406811138C0CE018D58AE
:104830009F4F0E94F71B80E090E0892B09F443CF43
:104840000E94FC03882309F43ACF0E94000037CF6E
:1048500080E00E943B09882309F4FECDBECE803261
:1048600009F0FACD83E08093F0044091E704509181
:10487000E8046091E9047091EA04409302055093C2
:10488000030560930405709305052EEF34E08DEC6D
:1048900094E00E94870B8111C9CEDECDC755DF4F52
:1048A00068817981C95AD040CE0101960E94DA1BF5
:1048B0000D81CE0101960E94EF1BC755DF4F688125
:1048C0007981C95AD040CE0101960E94DA1B04506A
:1048D000110BCD80DE80C016D10628F4902F812FD9
:1048E0008601C92ED82E6DE671E0CE0180569F4F0D
:1048F0000E94DA1BED80FE800E151F0528F5CE14F0
:10490000DF0408F47601E981FA81EE0DFF1DD08005
:10491000108269817A81600F711F6115710509F438
:10492000CDC0FB0101900020E9F73197AF01461B94
:10493000570BCE0180569F4F0E94B91B89819A81E7
:10494000E80EF91ED701DC92CE0101960E94EF1B02
:10495000C755DF4F68817981C95AD040C1010E9493
:10496000A12A66E072E0CE0101960E94DA1BCC55C6
:10497000DF4F88819981C45AD0402D813E818217B2
:10498000930711F5892B09F49FC0C056DF4FE880CB
:10499000F980C05AD04009811A81F70181917F01C5
:1049A000882309F491C0082E000C990B0E946F2AED
:1049B0006C01D8018D918D01082E000C990B0E947D
:1049C0006F2AC816D90649F310E0CE0101960E945D
:1049D000EF1B112309F457C021961FAE1EAE21977D
:1049E00008EE13E020E030E025960CAF1DAF2EAFAF
:1049F0003FAF25978EE091E09EAF8DAF68961FAEDA
:104A00001EAE68972A961FAE2A970E94C805CC54FE
:104A1000DF4F688379838A839B83C45BD040809116
:104A2000140590911505181619066CF58091160558
:104A300090911705892B39F10E9498198CEA96E01C
:104A40000E948404C1010E948B1987E20E947F04A6
:104A50000E949819B101CE0101960E946B1DBE0102
:104A60006F5F7F4FCE01CD960E94ED180E94240605
:104A7000C855DF4F8883C85AD040811127C08DE9BF
:104A800096E00E948404CE01885A9F4F0E94F71B33
:104A900064EF71E080E090E00E94950582E00E9462
:104AA000E804892B29F083E00E94E804892BB1F700
:104AB000CE0180569F4F0E94EF1B14CECE01805630
:104AC0009F4F0E94741B3ACF11E07FCFBE01635C01
:104AD0007F4FCE0101960E945B19CE0101960E9484
:104AE000431982349D44B9F0C855DF4F1882C85A23
:104AF000D040CE01CD960E94F71BC855DF4F1881DC
:104B0000C85AD0401111BFCF85E396E00E948404BB
:104B10000E949819B8CF81E996E00E948404BE01F2
:104B2000635C7F4FCE0101960E945B19CE01019616
:104B30000E941E190E94FF19BE01635C7F4FCE01C7
:104B400001960E945B19CE0101960E941E19BE01BA
:104B5000635C7F4FCE0101960E945B19CE010196E6
:104B60000E941E19C555DF4F688379838A839B8312
:104B7000CB5AD04082E896E00E948404C555DF4FAE
:104B8000688179818A819B81CB5AD0400E94FF192C
:104B900084E796E00E948404BE01635C7F4FCE01EF
:104BA00001960E945B19CE0101960E941E190E9477
:104BB000FF19BE01635C7F4FCE0101960E945B1915
:104BC000CE0101960E941E194B01BE01635C7F4F0E
:104BD000CE0101960E945B19CE0101960E941E191A
:104BE0002B01BE01635C7F4FCE0101960E945B19D1
:104BF000CE0101960E944319019709F075CFBE01BD
:104C0000635C7F4FCE0101960E945B19CE01019635
:104C10000E944319182F88E696E00E948404612FB1
:104C200070E090E080E04AE00E94AF190E9498197D
:104C3000183109F059CFBE01635C7F4FCE01019658
:104C40000E945B19CE0101960E941E19672B682BEA
:104C5000692B09F049CFCA55DF4F99828882C65A1D
:104C6000D0408BE596E00E9484046401092C000C7E
:104C7000EE08FF084AE0C701B601F7FE0BC08DE25F
:104C80000E947F0466277727CB016C197D098E0966
:104C90009F094AE00E94AF19820188E70E947F04C1
:104CA0006201052C000CEE08FF084AE0C701B601BE
:104CB000F7FE0BC08DE20E947F0466277727CB01A9
:104CC0006C197D098E099F094AE00E94AF190E9464
:104CD000981994012F5F3F4FC901880F991F820FC8
:104CE000931F9C012C7FC155DF4F39832883CF5AF6
:104CF000D040C901092E000CAA0BBB0BC854DF4FD2
:104D000088839983AA83BB83C85BD04017FF85C083
:104D10000027112704191509CD54DF4F1882C35BF2
:104D2000D0406090140570901505CA55DF4FA881DA
:104D3000B981C65AD040A615B7050CF43401F80164
:104D40003197CF54DF4FF983E883C15BD040A09007
:104D50001605B0901705EA15FB0508F458010A2D51
:104D6000262D40E060E08CE095E00E94DC11C55506
:104D7000DF4FC880D980EA80FB80CB5AD040512CCD
:104D8000412C0CE3CA55DF4F0883C65AD0404A1461
:104D90005B040CF0E6C0CD54DF4F1881C35BD040FC
:104DA000B701A6011123F1F0CF54DF4F28813981DB
:104DB000C15BD04024193509C155DF4FA881B981A5
:104DC000CF5AD0400E947328C555DF4F0881198102
:104DD0002A813B81CB5AD040060F171F281F391F4D
:104DE000B901A80168968EAD9FAD6897009701F153
:104DF000DC011A960D911D912D913C911D97401744
:104E0000510762077307F9F00E94F20B1CE3CA55C1
:104E1000DF4F1883C65AD04016C0C855DF4F98815F
:104E2000C85AD040CD54DF4F9883C35BD04079CF70
:104E30004F3F5F4F6F4F7F4F31F00CE3CA55DF4F4D
:104E40000883C65AD040912C812C861497040CF00C
:104E500078C0CA55DF4F0881C65AD0400C3390F055
:104E600068968EAD9FAD6897009739F04CE350E09F
:104E7000BE016F5F7F4F0E94800DCA55DF4F1882C1
:104E8000C65AD040E1E0F0E0EC0FFD1FCA55DF4FFD
:104E90001881C65AD040E10FF11D8081E12FEF5FEC
:104EA00021E030E02C0F3D1F2E0F311DF901208134
:104EB000E12FEE5F41E050E04C0F5D1F4E0F511DA2
:104EC000FA011D5FCA55DF4F1883C65AD0400081D2
:104ED00010E0102F00270027187F58E0259F900131
:104EE0001124207E3770022B132B90E023E0959540
:104EF00087952A95E1F7082B192B809127058823A0
:104F000031F080910A0590910B050E9434078CE0E6
:104F100095E00E949C068CE095E00E94A706612F18
:104F20008CE095E00E940007602F8CE095E00E94E5
:104F300000078CE095E00E94B3068FEF881A980A6C
:104F400084CF9FEF491A590AC854DF4F088119814D
:104F50002A813B81C85BD040C00ED11EE21EF31EE9
:104F600016CF80E596E00E9484040E94C805CC54C8
:104F7000DF4F288139814A815B81C45BD040621B4D
:104F8000730B840B950B4AE00E94AF198BE092E003
:104F90000E94F319AECDBB274A3031F4992322F495
:104FA000BDE2909581959F4F0C94D727BB27FB01BD
:104FB0005527AA27880F991FAA1FA41710F0A41B12
:104FC00083955051B9F7A05DAA3308F0A95DA1936C
:104FD000009779F7B111B1931192CB010C94F0279E
:104FE000DC01FC01672F71917723E1F7329704C050
:104FF0007C916D9370836291AE17BF07C8F30895DB
:105000000E944228A59F900DB49F900DA49F800DF3
:10501000911D112408952F923F924F925F926F92AB
:105020007F928F929F92AF92BF92CF92DF92EF9238
:10503000FF920F931F93CF93DF93CDB7DEB7CA1BB9
:10504000DB0B0FB6F894DEBF0FBECDBF09942A88E4
:10505000398848885F846E847D848C849B84AA848C
:10506000B984C884DF80EE80FD800C811B81AA8119
:10507000B981CE0FD11D0FB6F894DEBF0FBECDBFE4
:10508000ED010895A29FB001B39FC001A39F700DD1
:10509000811D1124911DB29F700D811D1124911D40
:1050A0000895A1E21A2EAA1BBB1BFD010DC0AA1F69
:1050B000BB1FEE1FFF1FA217B307E407F50720F081
:1050C000A21BB30BE40BF50B661F771F881F991FFC
:1050D0001A9469F760957095809590959B01AC0145
:1050E000BD01CF0108950E944228332312F48A1B88
:1050F0009B0B0C947D280E944228B7FF0895821BC9
:10510000930B0895EE0FFF1F0590F491E02D099485
:105110000F931F93CF93DF938230910510F482E0B9
:1051200090E0E0913F05F091400530E020E0B0E0F4
:10513000A0E0309799F42115310509F44AC0281BE5
:10514000390B24303105D8F58A819B8161157105B1
:1051500089F1FB0193838283FE0111C0408151815B
:105160000281138148175907E0F04817590799F44D
:10517000109761F012960C93129713961C93329627
:10518000CF01DF91CF911F910F91089500933F05BB
:1051900010934005F4CF2115310551F04217530704
:1051A00038F0A901DB019A01BD01DF01F801C1CF8F
:1051B000EF01F9CF9093400580933F05CDCFFE01DD
:1051C000E20FF31F81939193225031093983288391
:1051D000D7CF20913D0530913E05232B41F42091FE
:1051E00006013091070130933E0520933D05209143
:1051F0000401309105012115310541F42DB73EB769
:105200004091080150910901241B350BE0913D05A7
:10521000F0913E05E217F307A0F42E1B3F0B281771
:10522000390778F0AC014E5F5F4F2417350748F01F
:105230004E0F5F1F50933E0540933D058193919320
:105240009FCFF0E0E0E09CCFCF93DF930097E9F0B1
:10525000FC01329713821282A0913F05B091400564
:10526000ED0130E020E01097A1F420813181820F20
:10527000931F20913D0530913E052817390709F00D
:1052800061C0F0933E05E0933D05DF91CF91089515
:10529000EA01CE17DF07E8F54A815B819E014115DF
:1052A0005105B1F7E901FB83EA8349915991C40F94
:1052B000D51FEC17FD0761F4808191810296840F60
:1052C000951FE90199838883828193819B838A83D7
:1052D000F0E0E0E012968D919C9113970097B9F55C
:1052E0002D913C911197CD010296820F931F209131
:1052F0003D0530913E052817390739F6309751F5AD
:105300001092400510923F05B0933E05A0933D05D5
:10531000BCCFD383C28340815181840F951FC817AE
:10532000D90761F44E5F5F4F88819981480F591FFB
:10533000518340838A819B81938382832115310528
:1053400009F0B0CFF0934005E0933F059ECFFD01FB
:10535000DC01C0CF13821282D7CFB0E0A0E0E3EB34
:10536000F9E20C940D288C01009751F4CB010E94B6
:1053700088288C01C801CDB7DEB7E0E10C9429285C
:10538000FC01E60FF71F9C0122503109E217F307D9
:1053900008F49DC0D901CD91DC911197C617D707AC
:1053A00098F0C530D10530F3CE01049786179707E2
:1053B00008F3C61BD70B2297C193D1936D937C93AF
:1053C000CF010E942429D6CF5B01AC1ABD0A4C0143
:1053D0008C0E9D1EA0913F05B0914005512C412C93
:1053E000F12CE12C109731F580913D0590913E050F
:1053F0008815990509F05CC04616570608F058C094
:105400008091040190910501009741F48DB79EB7FA
:105410004091080150910901841B950BE817F90789
:1054200008F055C0F0933E05E0933D05F901718306
:105430006083A0CF8D919C91119712966C901297DA
:1054400013967C901397A815B90559F56C0142E0A5
:10545000C40ED11CCA14DB0420F1AC014A195B094B
:10546000DA011296159780F062827382518340832D
:10547000D9016D937C93E114F10471F0D701139677
:10548000FC93EE93129776CF22968C0F9D1FF90115
:1054900091838083F301EFCFF0934005E0933F05C4
:1054A00069CF4816590608F42C017D01D3019ACF23
:1054B000CB010E9488287C01009749F0AE01B80119
:1054C0000E94842AC8010E942429870153CF10E03A
:1054D00000E050CF81E090E0F8940C94B72A91114D
:1054E000089581548A5108F4805E855A0895FB011D
:1054F000DC0104C08D910190801921F4415050408D
:10550000C8F7881B990B0895FB01DC0102C00190CC
:105510000D9241505040D8F70895FC0181918617B3
:1055200021F08823D9F7992708953197CF0108955D
:10553000FB01DC018D91019080190110D9F3990BC9
:105540000895FB01DC0101900D920020E1F7089520
:10555000FB01DC014150504048F001900D920020C9
:10556000C9F701C01D9241505040E0F70895F894EA
:02557000FFCF6B
:10557200FFFFFFFF00004105800000000000500611
:10558200BB108819130F30069E0EA80E00000000F3
:1055920032049203BF039F04F003CE03E203000030
:1055A2000000AA10920388198719000000009515BF
:1055B20092038819871930139103391811182D187D
:1055C2002118401891036B116411DE128C121B1208
:1055D200BE06C51666160D0A002F0009090063757E
:1055E2007272656E742066696C652069733A007028
:1055F20072657620496D616765206E6F7420666FF3
:10560200756E64007072657620496D616765202051
:10561200666F756E64310070726576696F7573209E
:1056220066696C652069733A2000496E6974696124
:105632006C697A696E6720534420636172642E2E0E
:105642002E004F4B21006661696C656421006E6516
:10565200787420696D6167652069733120203A0092
:1056620070726576696F757320696D61676520690F
:10567200733220203A002E626D7000206D7300009C
:00000001FF
